:0400000027EF00F0F6
:1000080008820E0133AB0BEF00F00DEF00F025EF87
:1000180000F080A612EF00F016EF00F0016A012A46
:1000280017EF00F0016A01460146014680500118A9
:10003800F70B0118806E0B0ED46EDB0ED36E0E011B
:10004800339B0892110078EF00F07DEC00F06BEC28
:1000580000F053EC00F002C006F003C007F00750B0
:1000680009E10F0E065CD8A03CEF00F03EEF00F06F
:1000780042EF00F082EC00F02DEF00F0075007E1AE
:100088000D0E065CD8B04BEF00F04DEF00F02DEFF1
:1000980000F080EC00F02DEF00F027EF00F060801A
:1000A80060B059EF00F05BEF00F054EF00F064CF60
:1000B80004F0056A0450FF08046E0550D8A0E82A29
:1000C8000008056E04C002F005C003F01200818626
:1000D8000E0192870F015899FC0E5817030E5F6F97
:1000E80060946088608E120008900892000129EFE1
:1000F80000F0809688961200808612008096120082
:020000040020DA
:10000000FF0FFF0FFF0FFF0FFF0FFF0FFF0FFF0F80
:020000040030CA
:0C000000AAFFFFFF9FFFFFFFFFFFFFFFB5
:00000001FF
