:0400000027EF00F0F6
:1000080008820E0133AB0BEF00F00DEF00F025EF87
:1000180000F080A612EF00F016EF00F0016A012A46
:1000280017EF00F0016A01460146014680500118A9
:10003800F70B0118806E0B0ED46EDB0ED36E0E011B
:10004800339B089211007DEF00F0035009E10F0E79
:10005800025CD8A032EF00F034EF00F037EF00F088
:10006800809643EF00F0035007E10D0E025CD8B014
:1000780040EF00F042EF00F043EF00F080861200FE
:10008800608060B04AEF00F04CEF00F045EF00F000
:1000980064CF04F0056A0450FF08046E0550D8A028
:1000A800E82A0008056E04C002F005C003F012003B
:1000B80082EC00F070EC00F044EC00F002C006F0B6
:1000C80003C007F006C002F007C003F029EC00F0F7
:1000D80060EF00F027EF00F081860E0192870F0194
:1000E8005899FC0E5817030E5F6F60946088608EF5
:1000F80012000890089200015CEF00F08096889644
:020108001200E3
:020000040020DA
:10000000FF0FFF0FFF0FFF0FFF0FFF0FFF0FFF0F80
:020000040030CA
:0C000000AAFFFFFF9FFFFFFFFFFFFFFFB5
:00000001FF
