:0400000027EF00F0F6
:100008000A820E0133AB0BEF00F00DEF00F025EF85
:1000180000F080A612EF00F016EF00F0016A012A46
:1000280017EF00F0016A01460146014680500118A9
:10003800F70B0118806E0B0ED46EDB0ED36E0E011B
:10004800339B0A92110000EF01F002A02EEF00F09E
:1000580030EF00F033EF00F07F8034EF00F07F9056
:1000680002A239EF00F03BEF00F03EEF00F07F8294
:100078003FEF00F07F9202A444EF00F046EF00F05B
:1000880049EF00F079844AEF00F0799402A64FEF27
:1000980000F051EF00F054EF00F07E8C55EF00F0C7
:1000A8007E9C02A85AEF00F05CEF00F05FEF00F0D2
:1000B800798860EF00F0799802AA65EF00F067EFA1
:1000C80000F06AEF00F0798A6BEF00F0799A02ACE1
:1000D80070EF00F072EF00F075EF00F07E8076EFC1
:1000E80000F07E9002AE7BEF00F07DEF00F080EF35
:1000F80000F07A8081EF00F07A9003A086EF00F09C
:1001080088EF00F08BEF00F07A828CEF00F07A92A3
:10011800120005EC01F0F3EC00F0E0EC00F0000E4A
:10012800076E090E066EC8EC00F002C008F003C0A6
:1001380009F008C002F009C003F0ADEC00F006C0F9
:1001480002F007C003F029EC00F097EF00F027EF6A
:1001580000F0035009E11E0E025CD8A0B6EF00F0D3
:10016800B8EF00F0BBEF00F08096C7EF00F0035047
:1001780007E1100E025CD8B0C4EF00F0C6EF00F043
:10018800C7EF00F080861200608060B0CEEF00F00C
:10019800D0EF00F0C9EF00F064CF04F0056A045016
:1001A800FF08046E0550D8A0E82A0008056E04C0B0
:1001B80002F005C003F01200879087928194869C14
:1001C8008198819A8690829082927F907F9279948A
:1001D8007E9C7998799A7E907A907A92120081869C
:1001E8000E0192870F015899FC0E5817030E5F6F86
:1001F80060946088608E12000A900A9200018DEF68
:0802080000F0809688961200B8
:020000040020DA
:10000000FF0FFF0FFF0FFF0FFF0FFF0FFF0FFF0F80
:020000040030CA
:0C000000AAFFFFFF9FFFFFFFFFFFFFFFB5
:00000001FF
